:020000020000FC
:020000001FC01F
:02000800FBC13A
:0200100005C227
:1000400000E10EBF0FEF0DBF00E80ABB0FE004BBDD
:10005000002707BB01BB0AE008BB41E0042F009565
:100060000F7005BB0CEC00936A000AE009BF78949E
:10007000DF9800E1041B8FEF9FEF0197F1F70A95DE
:10008000D1F7DF9A00E1041B8FEF9FEF0197F1F7A3
:060090000A95D1F7EDCF47
:100400000F930FB70F93413029F04A95042F0095B1
:100410000F7005BB0F910FBF0F9118950F930FB77A
:100420000F934F3029F04395042F00950F7005BBB3
:080430000F910FBF0F91189509
:00000001FF
